{
  "contractName": "AcceleratorDAO",
  "abi": [
    {
      "anonymous": false,
      "inputs": [
        {
          "indexed": true,
          "internalType": "address",
          "name": "initiator",
          "type": "address"
        },
        {
          "indexed": false,
          "internalType": "bytes32",
          "name": "role",
          "type": "bytes32"
        },
        {
          "indexed": false,
          "internalType": "string",
          "name": "message",
          "type": "string"
        },
        {
          "indexed": true,
          "internalType": "address",
          "name": "beneficiary",
          "type": "address"
        },
        {
          "indexed": false,
          "internalType": "uint256",
          "name": "amount",
          "type": "uint256"
        }
      ],
      "name": "Action",
      "type": "event"
    },
    {
      "anonymous": false,
      "inputs": [
        {
          "indexed": true,
          "internalType": "bytes32",
          "name": "role",
          "type": "bytes32"
        },
        {
          "indexed": true,
          "internalType": "bytes32",
          "name": "previousAdminRole",
          "type": "bytes32"
        },
        {
          "indexed": true,
          "internalType": "bytes32",
          "name": "newAdminRole",
          "type": "bytes32"
        }
      ],
      "name": "RoleAdminChanged",
      "type": "event"
    },
    {
      "anonymous": false,
      "inputs": [
        {
          "indexed": true,
          "internalType": "bytes32",
          "name": "role",
          "type": "bytes32"
        },
        {
          "indexed": true,
          "internalType": "address",
          "name": "account",
          "type": "address"
        },
        {
          "indexed": true,
          "internalType": "address",
          "name": "sender",
          "type": "address"
        }
      ],
      "name": "RoleGranted",
      "type": "event"
    },
    {
      "anonymous": false,
      "inputs": [
        {
          "indexed": true,
          "internalType": "bytes32",
          "name": "role",
          "type": "bytes32"
        },
        {
          "indexed": true,
          "internalType": "address",
          "name": "account",
          "type": "address"
        },
        {
          "indexed": true,
          "internalType": "address",
          "name": "sender",
          "type": "address"
        }
      ],
      "name": "RoleRevoked",
      "type": "event"
    },
    {
      "inputs": [],
      "name": "DEFAULT_ADMIN_ROLE",
      "outputs": [
        {
          "internalType": "bytes32",
          "name": "",
          "type": "bytes32"
        }
      ],
      "stateMutability": "view",
      "type": "function",
      "constant": true
    },
    {
      "inputs": [],
      "name": "daoBalance",
      "outputs": [
        {
          "internalType": "uint256",
          "name": "",
          "type": "uint256"
        }
      ],
      "stateMutability": "view",
      "type": "function",
      "constant": true
    },
    {
      "inputs": [
        {
          "internalType": "bytes32",
          "name": "role",
          "type": "bytes32"
        }
      ],
      "name": "getRoleAdmin",
      "outputs": [
        {
          "internalType": "bytes32",
          "name": "",
          "type": "bytes32"
        }
      ],
      "stateMutability": "view",
      "type": "function",
      "constant": true
    },
    {
      "inputs": [
        {
          "internalType": "bytes32",
          "name": "role",
          "type": "bytes32"
        },
        {
          "internalType": "address",
          "name": "account",
          "type": "address"
        }
      ],
      "name": "grantRole",
      "outputs": [],
      "stateMutability": "nonpayable",
      "type": "function"
    },
    {
      "inputs": [
        {
          "internalType": "bytes32",
          "name": "role",
          "type": "bytes32"
        },
        {
          "internalType": "address",
          "name": "account",
          "type": "address"
        }
      ],
      "name": "hasRole",
      "outputs": [
        {
          "internalType": "bool",
          "name": "",
          "type": "bool"
        }
      ],
      "stateMutability": "view",
      "type": "function",
      "constant": true
    },
    {
      "inputs": [
        {
          "internalType": "bytes32",
          "name": "role",
          "type": "bytes32"
        },
        {
          "internalType": "address",
          "name": "account",
          "type": "address"
        }
      ],
      "name": "renounceRole",
      "outputs": [],
      "stateMutability": "nonpayable",
      "type": "function"
    },
    {
      "inputs": [
        {
          "internalType": "bytes32",
          "name": "role",
          "type": "bytes32"
        },
        {
          "internalType": "address",
          "name": "account",
          "type": "address"
        }
      ],
      "name": "revokeRole",
      "outputs": [],
      "stateMutability": "nonpayable",
      "type": "function"
    },
    {
      "inputs": [
        {
          "internalType": "bytes4",
          "name": "interfaceId",
          "type": "bytes4"
        }
      ],
      "name": "supportsInterface",
      "outputs": [
        {
          "internalType": "bool",
          "name": "",
          "type": "bool"
        }
      ],
      "stateMutability": "view",
      "type": "function",
      "constant": true
    },
    {
      "inputs": [
        {
          "internalType": "string",
          "name": "title",
          "type": "string"
        },
        {
          "internalType": "string",
          "name": "description",
          "type": "string"
        },
        {
          "internalType": "address",
          "name": "beneficiary",
          "type": "address"
        },
        {
          "internalType": "uint256",
          "name": "amount",
          "type": "uint256"
        }
      ],
      "name": "createProposal",
      "outputs": [
        {
          "components": [
            {
              "internalType": "uint256",
              "name": "id",
              "type": "uint256"
            },
            {
              "internalType": "uint256",
              "name": "amount",
              "type": "uint256"
            },
            {
              "internalType": "uint256",
              "name": "duration",
              "type": "uint256"
            },
            {
              "internalType": "uint256",
              "name": "upvotes",
              "type": "uint256"
            },
            {
              "internalType": "uint256",
              "name": "downvotes",
              "type": "uint256"
            },
            {
              "internalType": "string",
              "name": "title",
              "type": "string"
            },
            {
              "internalType": "string",
              "name": "description",
              "type": "string"
            },
            {
              "internalType": "bool",
              "name": "passed",
              "type": "bool"
            },
            {
              "internalType": "bool",
              "name": "paid",
              "type": "bool"
            },
            {
              "internalType": "address payable",
              "name": "beneficiary",
              "type": "address"
            },
            {
              "internalType": "address",
              "name": "proposer",
              "type": "address"
            },
            {
              "internalType": "address",
              "name": "executor",
              "type": "address"
            }
          ],
          "internalType": "struct AcceleratorDAO.ProposalStruct",
          "name": "",
          "type": "tuple"
        }
      ],
      "stateMutability": "nonpayable",
      "type": "function"
    },
    {
      "inputs": [
        {
          "internalType": "uint256",
          "name": "proposalId",
          "type": "uint256"
        },
        {
          "internalType": "bool",
          "name": "choosen",
          "type": "bool"
        }
      ],
      "name": "performVote",
      "outputs": [
        {
          "components": [
            {
              "internalType": "address",
              "name": "voter",
              "type": "address"
            },
            {
              "internalType": "uint256",
              "name": "timestamp",
              "type": "uint256"
            },
            {
              "internalType": "bool",
              "name": "choosen",
              "type": "bool"
            }
          ],
          "internalType": "struct AcceleratorDAO.VotedStruct",
          "name": "",
          "type": "tuple"
        }
      ],
      "stateMutability": "nonpayable",
      "type": "function"
    },
    {
      "inputs": [
        {
          "internalType": "uint256",
          "name": "proposalId",
          "type": "uint256"
        }
      ],
      "name": "payBeneficiary",
      "outputs": [
        {
          "internalType": "uint256",
          "name": "",
          "type": "uint256"
        }
      ],
      "stateMutability": "nonpayable",
      "type": "function"
    },
    {
      "inputs": [],
      "name": "contribute",
      "outputs": [
        {
          "internalType": "uint256",
          "name": "",
          "type": "uint256"
        }
      ],
      "stateMutability": "payable",
      "type": "function",
      "payable": true
    },
    {
      "inputs": [],
      "name": "getProposals",
      "outputs": [
        {
          "components": [
            {
              "internalType": "uint256",
              "name": "id",
              "type": "uint256"
            },
            {
              "internalType": "uint256",
              "name": "amount",
              "type": "uint256"
            },
            {
              "internalType": "uint256",
              "name": "duration",
              "type": "uint256"
            },
            {
              "internalType": "uint256",
              "name": "upvotes",
              "type": "uint256"
            },
            {
              "internalType": "uint256",
              "name": "downvotes",
              "type": "uint256"
            },
            {
              "internalType": "string",
              "name": "title",
              "type": "string"
            },
            {
              "internalType": "string",
              "name": "description",
              "type": "string"
            },
            {
              "internalType": "bool",
              "name": "passed",
              "type": "bool"
            },
            {
              "internalType": "bool",
              "name": "paid",
              "type": "bool"
            },
            {
              "internalType": "address payable",
              "name": "beneficiary",
              "type": "address"
            },
            {
              "internalType": "address",
              "name": "proposer",
              "type": "address"
            },
            {
              "internalType": "address",
              "name": "executor",
              "type": "address"
            }
          ],
          "internalType": "struct AcceleratorDAO.ProposalStruct[]",
          "name": "props",
          "type": "tuple[]"
        }
      ],
      "stateMutability": "view",
      "type": "function",
      "constant": true
    },
    {
      "inputs": [
        {
          "internalType": "uint256",
          "name": "proposalId",
          "type": "uint256"
        }
      ],
      "name": "getProposal",
      "outputs": [
        {
          "components": [
            {
              "internalType": "uint256",
              "name": "id",
              "type": "uint256"
            },
            {
              "internalType": "uint256",
              "name": "amount",
              "type": "uint256"
            },
            {
              "internalType": "uint256",
              "name": "duration",
              "type": "uint256"
            },
            {
              "internalType": "uint256",
              "name": "upvotes",
              "type": "uint256"
            },
            {
              "internalType": "uint256",
              "name": "downvotes",
              "type": "uint256"
            },
            {
              "internalType": "string",
              "name": "title",
              "type": "string"
            },
            {
              "internalType": "string",
              "name": "description",
              "type": "string"
            },
            {
              "internalType": "bool",
              "name": "passed",
              "type": "bool"
            },
            {
              "internalType": "bool",
              "name": "paid",
              "type": "bool"
            },
            {
              "internalType": "address payable",
              "name": "beneficiary",
              "type": "address"
            },
            {
              "internalType": "address",
              "name": "proposer",
              "type": "address"
            },
            {
              "internalType": "address",
              "name": "executor",
              "type": "address"
            }
          ],
          "internalType": "struct AcceleratorDAO.ProposalStruct",
          "name": "",
          "type": "tuple"
        }
      ],
      "stateMutability": "view",
      "type": "function",
      "constant": true
    },
    {
      "inputs": [
        {
          "internalType": "uint256",
          "name": "proposalId",
          "type": "uint256"
        }
      ],
      "name": "getVotesOf",
      "outputs": [
        {
          "components": [
            {
              "internalType": "address",
              "name": "voter",
              "type": "address"
            },
            {
              "internalType": "uint256",
              "name": "timestamp",
              "type": "uint256"
            },
            {
              "internalType": "bool",
              "name": "choosen",
              "type": "bool"
            }
          ],
          "internalType": "struct AcceleratorDAO.VotedStruct[]",
          "name": "",
          "type": "tuple[]"
        }
      ],
      "stateMutability": "view",
      "type": "function",
      "constant": true
    },
    {
      "inputs": [],
      "name": "getStakeholderVotes",
      "outputs": [
        {
          "internalType": "uint256[]",
          "name": "",
          "type": "uint256[]"
        }
      ],
      "stateMutability": "view",
      "type": "function",
      "constant": true
    },
    {
      "inputs": [],
      "name": "getStakeholderBalance",
      "outputs": [
        {
          "internalType": "uint256",
          "name": "",
          "type": "uint256"
        }
      ],
      "stateMutability": "view",
      "type": "function",
      "constant": true
    },
    {
      "inputs": [],
      "name": "isStakeholder",
      "outputs": [
        {
          "internalType": "bool",
          "name": "",
          "type": "bool"
        }
      ],
      "stateMutability": "view",
      "type": "function",
      "constant": true
    },
    {
      "inputs": [],
      "name": "getContributorBalance",
      "outputs": [
        {
          "internalType": "uint256",
          "name": "",
          "type": "uint256"
        }
      ],
      "stateMutability": "view",
      "type": "function",
      "constant": true
    },
    {
      "inputs": [],
      "name": "isContributor",
      "outputs": [
        {
          "internalType": "bool",
          "name": "",
          "type": "bool"
        }
      ],
      "stateMutability": "view",
      "type": "function",
      "constant": true
    },
    {
      "inputs": [],
      "name": "getBalance",
      "outputs": [
        {
          "internalType": "uint256",
          "name": "",
          "type": "uint256"
        }
      ],
      "stateMutability": "view",
      "type": "function",
      "constant": true
    }
  ],
  "bytecode": "0x6101006040527fa0bb1af1c90aa52ed052b92714ff0087008cc720049bf1af77cca2600b31e80c6080908152507ff4bb84e1768dd286358a736d195a0b228621173f655a73b89bf8b191ed0ba07d60a090815250670de0b6b3a764000060c09081525062093a8063ffffffff1660e09063ffffffff1681525034801561008457600080fd5b50600160008190555060805160a05160c05160e051613f7961011a600039600061118b01526000611e1e0152600081816105ea015281816108c101528181610f5b0152818161102f015281816115a3015281816116e20152818161196f01528181611da401528181611ee201526120d4015260008181610a3a0152818161121401528181611f0c0152611f910152613f796000f3fe60806040526004361061012a5760003560e01c80637cdc2eb7116100ab578063bd9728161161006f578063bd9728161461042e578063c02146ac14610459578063c7f758a814610484578063d547741f146104c1578063d6cc8016146104ea578063d7bb99ba146105155761012a565b80637cdc2eb71461032157806391d148541461035e578063a217fddf1461039b578063a22f1db7146103c6578063b31f111c146103f15761012a565b806336568abe116100f257806336568abe1461023a5780633cdb48c21461026357806362564c481461028e57806369a136dc146102b95780636a80d84d146102f65761012a565b806301ffc9a71461012f578063119c37c81461016c57806312065fe0146101a9578063248a9ca3146101d45780632f2ff15d14610211575b600080fd5b34801561013b57600080fd5b5061015660048036038101906101519190612a73565b610533565b6040516101639190612abb565b60405180910390f35b34801561017857600080fd5b50610193600480360381019061018e9190612b0c565b6105ad565b6040516101a09190612b48565b60405180910390f35b3480156101b557600080fd5b506101be61090f565b6040516101cb9190612b48565b60405180910390f35b3480156101e057600080fd5b506101fb60048036038101906101f69190612b99565b610956565b6040516102089190612bd5565b60405180910390f35b34801561021d57600080fd5b5061023860048036038101906102339190612c4e565b610976565b005b34801561024657600080fd5b50610261600480360381019061025c9190612c4e565b610997565b005b34801561026f57600080fd5b50610278610a1a565b6040516102859190612b48565b60405180910390f35b34801561029a57600080fd5b506102a3610ae8565b6040516102b09190612f42565b60405180910390f35b3480156102c557600080fd5b506102e060048036038101906102db9190612b0c565b610e31565b6040516102ed9190613055565b60405180910390f35b34801561030257600080fd5b5061030b610f1e565b6040516103189190612b48565b60405180910390f35b34801561032d57600080fd5b50610348600480360381019061034391906130dc565b611009565b604051610355919061328e565b60405180910390f35b34801561036a57600080fd5b5061038560048036038101906103809190612c4e565b6114f4565b6040516103929190612abb565b60405180910390f35b3480156103a757600080fd5b506103b061155f565b6040516103bd9190612bd5565b60405180910390f35b3480156103d257600080fd5b506103db611566565b6040516103e8919061335f565b60405180910390f35b3480156103fd57600080fd5b50610418600480360381019061041391906133ad565b61169f565b604051610425919061342f565b60405180910390f35b34801561043a57600080fd5b506104436119e6565b6040516104509190612b48565b60405180910390f35b34801561046557600080fd5b5061046e6119ec565b60405161047b9190612abb565b60405180910390f35b34801561049057600080fd5b506104ab60048036038101906104a69190612b0c565b611a35565b6040516104b8919061328e565b60405180910390f35b3480156104cd57600080fd5b506104e860048036038101906104e39190612c4e565b611cf1565b005b3480156104f657600080fd5b506104ff611d12565b60405161050c9190612abb565b60405180910390f35b61051d611d5b565b60405161052a9190612b48565b60405180910390f35b60007f7965db0b000000000000000000000000000000000000000000000000000000007bffffffffffffffffffffffffffffffffffffffffffffffffffffffff1916827bffffffffffffffffffffffffffffffffffffffffffffffffffffffff191614806105a657506105a582612112565b5b9050919050565b60006040518060400160405280601f81526020017f556e617574686f72697a65643a205374616b65686f6c64657273206f6e6c790081525061060f7f0000000000000000000000000000000000000000000000000000000000000000336114f4565b8190610651576040517f08c379a00000000000000000000000000000000000000000000000000000000081526004016106489190613494565b60405180910390fd5b5060026000541415610698576040517f08c379a000000000000000000000000000000000000000000000000000000000815260040161068f90613502565b60405180910390fd5b6002600081905550600060046000858152602001908152602001600020905080600101546003541015610700576040517f08c379a00000000000000000000000000000000000000000000000000000000081526004016106f79061356e565b60405180910390fd5b8060070160019054906101000a900460ff1615610752576040517f08c379a0000000000000000000000000000000000000000000000000000000008152600401610749906135da565b60405180910390fd5b806004015481600301541161079c576040517f08c379a000000000000000000000000000000000000000000000000000000000815260040161079390613646565b60405180910390fd5b6107ce8160070160029054906101000a900473ffffffffffffffffffffffffffffffffffffffff16826001015461217c565b5060018160070160016101000a81548160ff021916908315150217905550338160090160006101000a81548173ffffffffffffffffffffffffffffffffffffffff021916908373ffffffffffffffffffffffffffffffffffffffff1602179055508060010154600360008282546108459190613695565b925050819055508060070160029054906101000a900473ffffffffffffffffffffffffffffffffffffffff1673ffffffffffffffffffffffffffffffffffffffff163373ffffffffffffffffffffffffffffffffffffffff167fa596782d699d74613fcbf59d33e720baabd313d6be9c95e2268f305430305eb77f000000000000000000000000000000000000000000000000000000000000000084600101546040516108f3929190613715565b60405180910390a3600354925050600160008190555050919050565b6000600760003373ffffffffffffffffffffffffffffffffffffffff1673ffffffffffffffffffffffffffffffffffffffff16815260200190815260200160002054905090565b600060016000838152602001908152602001600020600101549050919050565b61097f82610956565b61098881612234565b6109928383612248565b505050565b61099f612328565b73ffffffffffffffffffffffffffffffffffffffff168173ffffffffffffffffffffffffffffffffffffffff1614610a0c576040517f08c379a0000000000000000000000000000000000000000000000000000000008152600401610a03906137c3565b60405180910390fd5b610a168282612330565b5050565b6000604051806060016040528060218152602001613ef460219139610a5f7f0000000000000000000000000000000000000000000000000000000000000000336114f4565b8190610aa1576040517f08c379a0000000000000000000000000000000000000000000000000000000008152600401610a989190613494565b60405180910390fd5b50600760003373ffffffffffffffffffffffffffffffffffffffff1673ffffffffffffffffffffffffffffffffffffffff1681526020019081526020016000205491505090565b606060025467ffffffffffffffff811115610b0657610b056137e3565b5b604051908082528060200260200182016040528015610b3f57816020015b610b2c61288e565b815260200190600190039081610b245790505b50905060005b600254811015610e2d5760046000828152602001908152602001600020604051806101800160405290816000820154815260200160018201548152602001600282015481526020016003820154815260200160048201548152602001600582018054610bb090613841565b80601f0160208091040260200160405190810160405280929190818152602001828054610bdc90613841565b8015610c295780601f10610bfe57610100808354040283529160200191610c29565b820191906000526020600020905b815481529060010190602001808311610c0c57829003601f168201915b50505050508152602001600682018054610c4290613841565b80601f0160208091040260200160405190810160405280929190818152602001828054610c6e90613841565b8015610cbb5780601f10610c9057610100808354040283529160200191610cbb565b820191906000526020600020905b815481529060010190602001808311610c9e57829003601f168201915b505050505081526020016007820160009054906101000a900460ff161515151581526020016007820160019054906101000a900460ff161515151581526020016007820160029054906101000a900473ffffffffffffffffffffffffffffffffffffffff1673ffffffffffffffffffffffffffffffffffffffff1673ffffffffffffffffffffffffffffffffffffffff1681526020016008820160009054906101000a900473ffffffffffffffffffffffffffffffffffffffff1673ffffffffffffffffffffffffffffffffffffffff1673ffffffffffffffffffffffffffffffffffffffff1681526020016009820160009054906101000a900473ffffffffffffffffffffffffffffffffffffffff1673ffffffffffffffffffffffffffffffffffffffff1673ffffffffffffffffffffffffffffffffffffffff1681525050828281518110610e0f57610e0e613873565b5b60200260200101819052508080610e25906138a2565b915050610b45565b5090565b606060066000838152602001908152602001600020805480602002602001604051908101604052809291908181526020016000905b82821015610f1357838290600052602060002090600302016040518060600160405290816000820160009054906101000a900473ffffffffffffffffffffffffffffffffffffffff1673ffffffffffffffffffffffffffffffffffffffff1673ffffffffffffffffffffffffffffffffffffffff168152602001600182015481526020016002820160009054906101000a900460ff16151515158152505081526020019060010190610e66565b505050509050919050565b60006040518060400160405280601f81526020017f556e617574686f72697a65643a206e6f742061207374616b65686f6c64657200815250610f807f0000000000000000000000000000000000000000000000000000000000000000336114f4565b8190610fc2576040517f08c379a0000000000000000000000000000000000000000000000000000000008152600401610fb99190613494565b60405180910390fd5b50600860003373ffffffffffffffffffffffffffffffffffffffff1673ffffffffffffffffffffffffffffffffffffffff1681526020019081526020016000205491505090565b61101161288e565b6040518060600160405280602f8152602001613f15602f91396110547f0000000000000000000000000000000000000000000000000000000000000000336114f4565b8190611096576040517f08c379a000000000000000000000000000000000000000000000000000000000815260040161108d9190613494565b60405180910390fd5b506000600260008154809291906110ac906138a2565b9190505590506000600460008381526020019081526020016000209050818160000181905550338160080160006101000a81548173ffffffffffffffffffffffffffffffffffffffff021916908373ffffffffffffffffffffffffffffffffffffffff1602179055508989826005019190611128929190612935565b50878782600601919061113c929190612935565b50858160070160026101000a81548173ffffffffffffffffffffffffffffffffffffffff021916908373ffffffffffffffffffffffffffffffffffffffff1602179055508481600101819055507f000000000000000000000000000000000000000000000000000000000000000063ffffffff16426111bb91906138eb565b81600201819055508573ffffffffffffffffffffffffffffffffffffffff163373ffffffffffffffffffffffffffffffffffffffff167fa596782d699d74613fcbf59d33e720baabd313d6be9c95e2268f305430305eb77f00000000000000000000000000000000000000000000000000000000000000008860405161124292919061398d565b60405180910390a38060405180610180016040529081600082015481526020016001820154815260200160028201548152602001600382015481526020016004820154815260200160058201805461129990613841565b80601f01602080910402602001604051908101604052809291908181526020018280546112c590613841565b80156113125780601f106112e757610100808354040283529160200191611312565b820191906000526020600020905b8154815290600101906020018083116112f557829003601f168201915b5050505050815260200160068201805461132b90613841565b80601f016020809104026020016040519081016040528092919081815260200182805461135790613841565b80156113a45780601f10611379576101008083540402835291602001916113a4565b820191906000526020600020905b81548152906001019060200180831161138757829003601f168201915b505050505081526020016007820160009054906101000a900460ff161515151581526020016007820160019054906101000a900460ff161515151581526020016007820160029054906101000a900473ffffffffffffffffffffffffffffffffffffffff1673ffffffffffffffffffffffffffffffffffffffff1673ffffffffffffffffffffffffffffffffffffffff1681526020016008820160009054906101000a900473ffffffffffffffffffffffffffffffffffffffff1673ffffffffffffffffffffffffffffffffffffffff1673ffffffffffffffffffffffffffffffffffffffff1681526020016009820160009054906101000a900473ffffffffffffffffffffffffffffffffffffffff1673ffffffffffffffffffffffffffffffffffffffff1673ffffffffffffffffffffffffffffffffffffffff168152505093505050509695505050505050565b60006001600084815260200190815260200160002060000160008373ffffffffffffffffffffffffffffffffffffffff1673ffffffffffffffffffffffffffffffffffffffff16815260200190815260200160002060009054906101000a900460ff16905092915050565b6000801b81565b60606040518060400160405280601f81526020017f556e617574686f72697a65643a206e6f742061207374616b65686f6c646572008152506115c87f0000000000000000000000000000000000000000000000000000000000000000336114f4565b819061160a576040517f08c379a00000000000000000000000000000000000000000000000000000000081526004016116019190613494565b60405180910390fd5b50600560003373ffffffffffffffffffffffffffffffffffffffff1673ffffffffffffffffffffffffffffffffffffffff16815260200190815260200160002080548060200260200160405190810160405280929190818152602001828054801561169457602002820191906000526020600020905b815481526020019060010190808311611680575b505050505091505090565b6116a76129bb565b6040518060400160405280601f81526020017f556e617574686f72697a65643a205374616b65686f6c64657273206f6e6c79008152506117077f0000000000000000000000000000000000000000000000000000000000000000336114f4565b8190611749576040517f08c379a00000000000000000000000000000000000000000000000000000000081526004016117409190613494565b60405180910390fd5b50600060046000868152602001908152602001600020905061176a81612412565b831561178f57806003016000815480929190611785906138a2565b91905055506117aa565b8060040160008154809291906117a4906138a2565b91905055505b600560003373ffffffffffffffffffffffffffffffffffffffff1673ffffffffffffffffffffffffffffffffffffffff16815260200190815260200160002081600001549080600181540180825580915050600190039060005260206000200160009091909190915055600660008260000154815260200190815260200160002060405180606001604052803373ffffffffffffffffffffffffffffffffffffffff168152602001428152602001861515815250908060018154018082558091505060019003906000526020600020906003020160009091909190915060008201518160000160006101000a81548173ffffffffffffffffffffffffffffffffffffffff021916908373ffffffffffffffffffffffffffffffffffffffff1602179055506020820151816001015560408201518160020160006101000a81548160ff02191690831515021790555050508060070160029054906101000a900473ffffffffffffffffffffffffffffffffffffffff1673ffffffffffffffffffffffffffffffffffffffff163373ffffffffffffffffffffffffffffffffffffffff167fa596782d699d74613fcbf59d33e720baabd313d6be9c95e2268f305430305eb77f000000000000000000000000000000000000000000000000000000000000000084600101546040516119a1929190613a15565b60405180910390a360405180606001604052803373ffffffffffffffffffffffffffffffffffffffff1681526020014281526020018515158152509250505092915050565b60035481565b600080600860003373ffffffffffffffffffffffffffffffffffffffff1673ffffffffffffffffffffffffffffffffffffffff1681526020019081526020016000205411905090565b611a3d61288e565b60046000838152602001908152602001600020604051806101800160405290816000820154815260200160018201548152602001600282015481526020016003820154815260200160048201548152602001600582018054611a9e90613841565b80601f0160208091040260200160405190810160405280929190818152602001828054611aca90613841565b8015611b175780601f10611aec57610100808354040283529160200191611b17565b820191906000526020600020905b815481529060010190602001808311611afa57829003601f168201915b50505050508152602001600682018054611b3090613841565b80601f0160208091040260200160405190810160405280929190818152602001828054611b5c90613841565b8015611ba95780601f10611b7e57610100808354040283529160200191611ba9565b820191906000526020600020905b815481529060010190602001808311611b8c57829003601f168201915b505050505081526020016007820160009054906101000a900460ff161515151581526020016007820160019054906101000a900460ff161515151581526020016007820160029054906101000a900473ffffffffffffffffffffffffffffffffffffffff1673ffffffffffffffffffffffffffffffffffffffff1673ffffffffffffffffffffffffffffffffffffffff1681526020016008820160009054906101000a900473ffffffffffffffffffffffffffffffffffffffff1673ffffffffffffffffffffffffffffffffffffffff1673ffffffffffffffffffffffffffffffffffffffff1681526020016009820160009054906101000a900473ffffffffffffffffffffffffffffffffffffffff1673ffffffffffffffffffffffffffffffffffffffff1673ffffffffffffffffffffffffffffffffffffffff16815250509050919050565b611cfa82610956565b611d0381612234565b611d0d8383612330565b505050565b600080600760003373ffffffffffffffffffffffffffffffffffffffff1673ffffffffffffffffffffffffffffffffffffffff1681526020019081526020016000205411905090565b6000803411611d9f576040517f08c379a0000000000000000000000000000000000000000000000000000000008152600401611d9690613ac3565b60405180910390fd5b611dc97f0000000000000000000000000000000000000000000000000000000000000000336114f4565b611fbd57600034600760003373ffffffffffffffffffffffffffffffffffffffff1673ffffffffffffffffffffffffffffffffffffffff16815260200190815260200160002054611e1a91906138eb565b90507f00000000000000000000000000000000000000000000000000000000000000008110611f365780600860003373ffffffffffffffffffffffffffffffffffffffff1673ffffffffffffffffffffffffffffffffffffffff1681526020019081526020016000208190555034600760003373ffffffffffffffffffffffffffffffffffffffff1673ffffffffffffffffffffffffffffffffffffffff1681526020019081526020016000206000828254611ed691906138eb565b92505081905550611f077f0000000000000000000000000000000000000000000000000000000000000000336125a7565b611f317f0000000000000000000000000000000000000000000000000000000000000000336125a7565b611fb7565b34600760003373ffffffffffffffffffffffffffffffffffffffff1673ffffffffffffffffffffffffffffffffffffffff1681526020019081526020016000206000828254611f8591906138eb565b92505081905550611fb67f0000000000000000000000000000000000000000000000000000000000000000336125a7565b5b5061206a565b34600760003373ffffffffffffffffffffffffffffffffffffffff1673ffffffffffffffffffffffffffffffffffffffff168152602001908152602001600020600082825461200c91906138eb565b9250508190555034600860003373ffffffffffffffffffffffffffffffffffffffff1673ffffffffffffffffffffffffffffffffffffffff168152602001908152602001600020600082825461206291906138eb565b925050819055505b346003600082825461207c91906138eb565b925050819055503073ffffffffffffffffffffffffffffffffffffffff163373ffffffffffffffffffffffffffffffffffffffff167fa596782d699d74613fcbf59d33e720baabd313d6be9c95e2268f305430305eb77f000000000000000000000000000000000000000000000000000000000000000034604051612102929190613b2f565b60405180910390a3600354905090565b60007f01ffc9a7000000000000000000000000000000000000000000000000000000007bffffffffffffffffffffffffffffffffffffffffffffffffffffffff1916827bffffffffffffffffffffffffffffffffffffffffffffffffffffffff1916149050919050565b6000808373ffffffffffffffffffffffffffffffffffffffff16836040516121a390613b9c565b60006040518083038185875af1925050503d80600081146121e0576040519150601f19603f3d011682016040523d82523d6000602084013e6121e5565b606091505b5050905080612229576040517f08c379a000000000000000000000000000000000000000000000000000000000815260040161222090613bfd565b60405180910390fd5b600191505092915050565b61224581612240612328565b6125b5565b50565b61225282826114f4565b61232457600180600084815260200190815260200160002060000160008373ffffffffffffffffffffffffffffffffffffffff1673ffffffffffffffffffffffffffffffffffffffff16815260200190815260200160002060006101000a81548160ff0219169083151502179055506122c9612328565b73ffffffffffffffffffffffffffffffffffffffff168173ffffffffffffffffffffffffffffffffffffffff16837f2f8788117e7eff1d82e926ec794901d17c78024a50270940304540a733656f0d60405160405180910390a45b5050565b600033905090565b61233a82826114f4565b1561240e5760006001600084815260200190815260200160002060000160008373ffffffffffffffffffffffffffffffffffffffff1673ffffffffffffffffffffffffffffffffffffffff16815260200190815260200160002060006101000a81548160ff0219169083151502179055506123b3612328565b73ffffffffffffffffffffffffffffffffffffffff168173ffffffffffffffffffffffffffffffffffffffff16837ff6391f5c32d9c69d2a47ea670b442974b53935d1edc7fd64eb21e047a839171b60405160405180910390a45b5050565b8060070160009054906101000a900460ff1680612433575042816002015411155b156124905760018160070160006101000a81548160ff0219169083151502179055506040517f08c379a000000000000000000000000000000000000000000000000000000000815260040161248790613c69565b60405180910390fd5b6000600560003373ffffffffffffffffffffffffffffffffffffffff1673ffffffffffffffffffffffffffffffffffffffff16815260200190815260200160002080548060200260200160405190810160405280929190818152602001828054801561251b57602002820191906000526020600020905b815481526020019060010190808311612507575b5050505050905060005b81518110156125a25781818151811061254157612540613873565b5b60200260200101518360000154141561258f576040517f08c379a000000000000000000000000000000000000000000000000000000000815260040161258690613cd5565b60405180910390fd5b808061259a906138a2565b915050612525565b505050565b6125b18282612248565b5050565b6125bf82826114f4565b61264e576125e48173ffffffffffffffffffffffffffffffffffffffff166014612652565b6125f28360001c6020612652565b604051602001612603929190613dc9565b6040516020818303038152906040526040517f08c379a00000000000000000000000000000000000000000000000000000000081526004016126459190613494565b60405180910390fd5b5050565b6060600060028360026126659190613e03565b61266f91906138eb565b67ffffffffffffffff811115612688576126876137e3565b5b6040519080825280601f01601f1916602001820160405280156126ba5781602001600182028036833780820191505090505b5090507f3000000000000000000000000000000000000000000000000000000000000000816000815181106126f2576126f1613873565b5b60200101907effffffffffffffffffffffffffffffffffffffffffffffffffffffffffffff1916908160001a9053507f78000000000000000000000000000000000000000000000000000000000000008160018151811061275657612755613873565b5b60200101907effffffffffffffffffffffffffffffffffffffffffffffffffffffffffffff1916908160001a905350600060018460026127969190613e03565b6127a091906138eb565b90505b6001811115612840577f3031323334353637383961626364656600000000000000000000000000000000600f8616601081106127e2576127e1613873565b5b1a60f81b8282815181106127f9576127f8613873565b5b60200101907effffffffffffffffffffffffffffffffffffffffffffffffffffffffffffff1916908160001a905350600485901c94508061283990613e5d565b90506127a3565b5060008414612884576040517f08c379a000000000000000000000000000000000000000000000000000000000815260040161287b90613ed3565b60405180910390fd5b8091505092915050565b60405180610180016040528060008152602001600081526020016000815260200160008152602001600081526020016060815260200160608152602001600015158152602001600015158152602001600073ffffffffffffffffffffffffffffffffffffffff168152602001600073ffffffffffffffffffffffffffffffffffffffff168152602001600073ffffffffffffffffffffffffffffffffffffffff1681525090565b82805461294190613841565b90600052602060002090601f01602090048101928261296357600085556129aa565b82601f1061297c57803560ff19168380011785556129aa565b828001600101855582156129aa579182015b828111156129a957823582559160200191906001019061298e565b5b5090506129b791906129f4565b5090565b6040518060600160405280600073ffffffffffffffffffffffffffffffffffffffff168152602001600081526020016000151581525090565b5b80821115612a0d5760008160009055506001016129f5565b5090565b600080fd5b600080fd5b60007fffffffff0000000000000000000000000000000000000000000000000000000082169050919050565b612a5081612a1b565b8114612a5b57600080fd5b50565b600081359050612a6d81612a47565b92915050565b600060208284031215612a8957612a88612a11565b5b6000612a9784828501612a5e565b91505092915050565b60008115159050919050565b612ab581612aa0565b82525050565b6000602082019050612ad06000830184612aac565b92915050565b6000819050919050565b612ae981612ad6565b8114612af457600080fd5b50565b600081359050612b0681612ae0565b92915050565b600060208284031215612b2257612b21612a11565b5b6000612b3084828501612af7565b91505092915050565b612b4281612ad6565b82525050565b6000602082019050612b5d6000830184612b39565b92915050565b6000819050919050565b612b7681612b63565b8114612b8157600080fd5b50565b600081359050612b9381612b6d565b92915050565b600060208284031215612baf57612bae612a11565b5b6000612bbd84828501612b84565b91505092915050565b612bcf81612b63565b82525050565b6000602082019050612bea6000830184612bc6565b92915050565b600073ffffffffffffffffffffffffffffffffffffffff82169050919050565b6000612c1b82612bf0565b9050919050565b612c2b81612c10565b8114612c3657600080fd5b50565b600081359050612c4881612c22565b92915050565b60008060408385031215612c6557612c64612a11565b5b6000612c7385828601612b84565b9250506020612c8485828601612c39565b9150509250929050565b600081519050919050565b600082825260208201905092915050565b6000819050602082019050919050565b612cc381612ad6565b82525050565b600081519050919050565b600082825260208201905092915050565b60005b83811015612d03578082015181840152602081019050612ce8565b83811115612d12576000848401525b50505050565b6000601f19601f8301169050919050565b6000612d3482612cc9565b612d3e8185612cd4565b9350612d4e818560208601612ce5565b612d5781612d18565b840191505092915050565b612d6b81612aa0565b82525050565b6000612d7c82612bf0565b9050919050565b612d8c81612d71565b82525050565b612d9b81612c10565b82525050565b600061018083016000830151612dba6000860182612cba565b506020830151612dcd6020860182612cba565b506040830151612de06040860182612cba565b506060830151612df36060860182612cba565b506080830151612e066080860182612cba565b5060a083015184820360a0860152612e1e8282612d29565b91505060c083015184820360c0860152612e388282612d29565b91505060e0830151612e4d60e0860182612d62565b50610100830151612e62610100860182612d62565b50610120830151612e77610120860182612d83565b50610140830151612e8c610140860182612d92565b50610160830151612ea1610160860182612d92565b508091505092915050565b6000612eb88383612da1565b905092915050565b6000602082019050919050565b6000612ed882612c8e565b612ee28185612c99565b935083602082028501612ef485612caa565b8060005b85811015612f305784840389528151612f118582612eac565b9450612f1c83612ec0565b925060208a01995050600181019050612ef8565b50829750879550505050505092915050565b60006020820190508181036000830152612f5c8184612ecd565b905092915050565b600081519050919050565b600082825260208201905092915050565b6000819050602082019050919050565b606082016000820151612fa66000850182612d92565b506020820151612fb96020850182612cba565b506040820151612fcc6040850182612d62565b50505050565b6000612fde8383612f90565b60608301905092915050565b6000602082019050919050565b600061300282612f64565b61300c8185612f6f565b935061301783612f80565b8060005b8381101561304857815161302f8882612fd2565b975061303a83612fea565b92505060018101905061301b565b5085935050505092915050565b6000602082019050818103600083015261306f8184612ff7565b905092915050565b600080fd5b600080fd5b600080fd5b60008083601f84011261309c5761309b613077565b5b8235905067ffffffffffffffff8111156130b9576130b861307c565b5b6020830191508360018202830111156130d5576130d4613081565b5b9250929050565b600080600080600080608087890312156130f9576130f8612a11565b5b600087013567ffffffffffffffff81111561311757613116612a16565b5b61312389828a01613086565b9650965050602087013567ffffffffffffffff81111561314657613145612a16565b5b61315289828a01613086565b9450945050604061316589828a01612c39565b925050606061317689828a01612af7565b9150509295509295509295565b60006101808301600083015161319c6000860182612cba565b5060208301516131af6020860182612cba565b5060408301516131c26040860182612cba565b5060608301516131d56060860182612cba565b5060808301516131e86080860182612cba565b5060a083015184820360a08601526132008282612d29565b91505060c083015184820360c086015261321a8282612d29565b91505060e083015161322f60e0860182612d62565b50610100830151613244610100860182612d62565b50610120830151613259610120860182612d83565b5061014083015161326e610140860182612d92565b50610160830151613283610160860182612d92565b508091505092915050565b600060208201905081810360008301526132a88184613183565b905092915050565b600081519050919050565b600082825260208201905092915050565b6000819050602082019050919050565b60006132e88383612cba565b60208301905092915050565b6000602082019050919050565b600061330c826132b0565b61331681856132bb565b9350613321836132cc565b8060005b8381101561335257815161333988826132dc565b9750613344836132f4565b925050600181019050613325565b5085935050505092915050565b600060208201905081810360008301526133798184613301565b905092915050565b61338a81612aa0565b811461339557600080fd5b50565b6000813590506133a781613381565b92915050565b600080604083850312156133c4576133c3612a11565b5b60006133d285828601612af7565b92505060206133e385828601613398565b9150509250929050565b6060820160008201516134036000850182612d92565b5060208201516134166020850182612cba565b5060408201516134296040850182612d62565b50505050565b600060608201905061344460008301846133ed565b92915050565b600082825260208201905092915050565b600061346682612cc9565b613470818561344a565b9350613480818560208601612ce5565b61348981612d18565b840191505092915050565b600060208201905081810360008301526134ae818461345b565b905092915050565b7f5265656e7472616e637947756172643a207265656e7472616e742063616c6c00600082015250565b60006134ec601f8361344a565b91506134f7826134b6565b602082019050919050565b6000602082019050818103600083015261351b816134df565b9050919050565b7f496e73756666696369656e742066756e64000000000000000000000000000000600082015250565b600061355860118361344a565b915061356382613522565b602082019050919050565b600060208201905081810360008301526135878161354b565b9050919050565b7f5061796d656e742073656e74206265666f726500000000000000000000000000600082015250565b60006135c460138361344a565b91506135cf8261358e565b602082019050919050565b600060208201905081810360008301526135f3816135b7565b9050919050565b7f496e73756666696369656e7420766f7465730000000000000000000000000000600082015250565b600061363060128361344a565b915061363b826135fa565b602082019050919050565b6000602082019050818103600083015261365f81613623565b9050919050565b7f4e487b7100000000000000000000000000000000000000000000000000000000600052601160045260246000fd5b60006136a082612ad6565b91506136ab83612ad6565b9250828210156136be576136bd613666565b5b828203905092915050565b7f5041594d454e54205452414e5346455245440000000000000000000000000000600082015250565b60006136ff60128361344a565b915061370a826136c9565b602082019050919050565b600060608201905061372a6000830185612bc6565b818103602083015261373b816136f2565b905061374a6040830184612b39565b9392505050565b7f416363657373436f6e74726f6c3a2063616e206f6e6c792072656e6f756e636560008201527f20726f6c657320666f722073656c660000000000000000000000000000000000602082015250565b60006137ad602f8361344a565b91506137b882613751565b604082019050919050565b600060208201905081810360008301526137dc816137a0565b9050919050565b7f4e487b7100000000000000000000000000000000000000000000000000000000600052604160045260246000fd5b7f4e487b7100000000000000000000000000000000000000000000000000000000600052602260045260246000fd5b6000600282049050600182168061385957607f821691505b6020821081141561386d5761386c613812565b5b50919050565b7f4e487b7100000000000000000000000000000000000000000000000000000000600052603260045260246000fd5b60006138ad82612ad6565b91507fffffffffffffffffffffffffffffffffffffffffffffffffffffffffffffffff8214156138e0576138df613666565b5b600182019050919050565b60006138f682612ad6565b915061390183612ad6565b9250827fffffffffffffffffffffffffffffffffffffffffffffffffffffffffffffffff0382111561393657613935613666565b5b828201905092915050565b7f50524f504f53414c205241495345440000000000000000000000000000000000600082015250565b6000613977600f8361344a565b915061398282613941565b602082019050919050565b60006060820190506139a26000830185612bc6565b81810360208301526139b38161396a565b90506139c26040830184612b39565b9392505050565b7f50524f504f53414c20564f544500000000000000000000000000000000000000600082015250565b60006139ff600d8361344a565b9150613a0a826139c9565b602082019050919050565b6000606082019050613a2a6000830185612bc6565b8181036020830152613a3b816139f2565b9050613a4a6040830184612b39565b9392505050565b7f436f6e747269627574696e67207a65726f206973206e6f7420616c6c6f77656460008201527f2e00000000000000000000000000000000000000000000000000000000000000602082015250565b6000613aad60218361344a565b9150613ab882613a51565b604082019050919050565b60006020820190508181036000830152613adc81613aa0565b9050919050565b7f434f4e545249425554494f4e2052454345495645440000000000000000000000600082015250565b6000613b1960158361344a565b9150613b2482613ae3565b602082019050919050565b6000606082019050613b446000830185612bc6565b8181036020830152613b5581613b0c565b9050613b646040830184612b39565b9392505050565b600081905092915050565b50565b6000613b86600083613b6b565b9150613b9182613b76565b600082019050919050565b6000613ba782613b79565b9150819050919050565b7f5061796d656e74206661696c6564000000000000000000000000000000000000600082015250565b6000613be7600e8361344a565b9150613bf282613bb1565b602082019050919050565b60006020820190508181036000830152613c1681613bda565b9050919050565b7f50726f706f73616c206475726174696f6e206578706972656400000000000000600082015250565b6000613c5360198361344a565b9150613c5e82613c1d565b602082019050919050565b60006020820190508181036000830152613c8281613c46565b9050919050565b7f446f75626c6520766f74696e67206e6f7420616c6c6f77656400000000000000600082015250565b6000613cbf60198361344a565b9150613cca82613c89565b602082019050919050565b60006020820190508181036000830152613cee81613cb2565b9050919050565b600081905092915050565b7f416363657373436f6e74726f6c3a206163636f756e7420000000000000000000600082015250565b6000613d36601783613cf5565b9150613d4182613d00565b601782019050919050565b6000613d5782612cc9565b613d618185613cf5565b9350613d71818560208601612ce5565b80840191505092915050565b7f206973206d697373696e6720726f6c6520000000000000000000000000000000600082015250565b6000613db3601183613cf5565b9150613dbe82613d7d565b601182019050919050565b6000613dd482613d29565b9150613de08285613d4c565b9150613deb82613da6565b9150613df78284613d4c565b91508190509392505050565b6000613e0e82612ad6565b9150613e1983612ad6565b9250817fffffffffffffffffffffffffffffffffffffffffffffffffffffffffffffffff0483118215151615613e5257613e51613666565b5b828202905092915050565b6000613e6882612ad6565b91506000821415613e7c57613e7b613666565b5b600182039050919050565b7f537472696e67733a20686578206c656e67746820696e73756666696369656e74600082015250565b6000613ebd60208361344a565b9150613ec882613e87565b602082019050919050565b60006020820190508181036000830152613eec81613eb0565b905091905056fe44656e6965643a2055736572206973206e6f74206120636f6e7472696275746f7250726f706f73616c204372656174696f6e20416c6c6f77656420666f72205374616b65686f6c64657273206f6e6c79a264697066735822122056fab7e5ab6386eef7c458c9600f3d4c53b811c076c3c1f827ac11add8ee8bf064736f6c634300080b0033",
  "immutableReferences": {
    "706": [
      {
        "length": 32,
        "start": 2618
      },
      {
        "length": 32,
        "start": 4628
      },
      {
        "length": 32,
        "start": 7948
      },
      {
        "length": 32,
        "start": 8081
      }
    ],
    "711": [
      {
        "length": 32,
        "start": 1514
      },
      {
        "length": 32,
        "start": 2241
      },
      {
        "length": 32,
        "start": 3931
      },
      {
        "length": 32,
        "start": 4143
      },
      {
        "length": 32,
        "start": 5539
      },
      {
        "length": 32,
        "start": 5858
      },
      {
        "length": 32,
        "start": 6511
      },
      {
        "length": 32,
        "start": 7588
      },
      {
        "length": 32,
        "start": 7906
      },
      {
        "length": 32,
        "start": 8404
      }
    ],
    "714": [
      {
        "length": 32,
        "start": 7710
      }
    ],
    "717": [
      {
        "length": 32,
        "start": 4491
      }
    ]
  },
  "source": "// SPDX-License-Identifier: MIT\r\npragma solidity ^0.8.7;\r\n\r\nimport \"@openzeppelin/contracts/access/AccessControl.sol\";\r\nimport \"@openzeppelin/contracts/security/ReentrancyGuard.sol\";\r\n\r\ncontract AcceleratorDAO is ReentrancyGuard, AccessControl {\r\n    bytes32 private immutable CONTRIBUTOR_ROLE = keccak256(\"CONTRIBUTOR\");\r\n    bytes32 private immutable STAKEHOLDER_ROLE = keccak256(\"STAKEHOLDER\");\r\n    uint256 immutable MIN_STAKEHOLDER_CONTRIBUTION = 1 ether;\r\n    uint32 immutable MIN_VOTE_DURATION = 1 weeks;\r\n    uint256 totalProposals;\r\n    uint256 public daoBalance;\r\n\r\n    mapping(uint256 => ProposalStruct) private raisedProposals;\r\n    mapping(address => uint256[]) private stakeholderVotes;\r\n    mapping(uint256 => VotedStruct[]) private votedOn;\r\n    mapping(address => uint256) private contributors;\r\n    mapping(address => uint256) private stakeholders;\r\n\r\n    struct ProposalStruct {\r\n        uint256 id;\r\n        uint256 amount;\r\n        uint256 duration;\r\n        uint256 upvotes;\r\n        uint256 downvotes;\r\n        string title;\r\n        string description;\r\n        bool passed;\r\n        bool paid;\r\n        address payable beneficiary;\r\n        address proposer;\r\n        address executor;\r\n    }\r\n\r\n    struct VotedStruct {\r\n        address voter;\r\n        uint256 timestamp;\r\n        bool choosen;\r\n    }\r\n\r\n    event Action(\r\n        address indexed initiator,\r\n        bytes32 role,\r\n        string message,\r\n        address indexed beneficiary,\r\n        uint256 amount\r\n    );\r\n\r\n    modifier stakeholderOnly(string memory message) {\r\n        require(hasRole(STAKEHOLDER_ROLE, msg.sender), message);\r\n        _;\r\n    }\r\n\r\n    modifier contributorOnly(string memory message) {\r\n        require(hasRole(CONTRIBUTOR_ROLE, msg.sender), message);\r\n        _;\r\n    }\r\n\r\n    function createProposal(\r\n        string calldata title,\r\n        string calldata description,\r\n        address beneficiary,\r\n        uint256 amount\r\n    )external\r\n     stakeholderOnly(\"Proposal Creation Allowed for Stakeholders only\")\r\n     returns (ProposalStruct memory)\r\n    {\r\n        uint256 proposalId = totalProposals++;\r\n        ProposalStruct storage proposal = raisedProposals[proposalId];\r\n\r\n        proposal.id = proposalId;\r\n        proposal.proposer = payable(msg.sender);\r\n        proposal.title = title;\r\n        proposal.description = description;\r\n        proposal.beneficiary = payable(beneficiary);\r\n        proposal.amount = amount;\r\n        proposal.duration = block.timestamp + MIN_VOTE_DURATION;\r\n\r\n        emit Action(\r\n            msg.sender,\r\n            CONTRIBUTOR_ROLE,\r\n            \"PROPOSAL RAISED\",\r\n            beneficiary,\r\n            amount\r\n        );\r\n\r\n        return proposal;\r\n    }\r\n\r\n    function performVote(uint256 proposalId, bool choosen)\r\n        external\r\n        stakeholderOnly(\"Unauthorized: Stakeholders only\")\r\n        returns (VotedStruct memory)\r\n    {\r\n        ProposalStruct storage proposal = raisedProposals[proposalId];\r\n\r\n        handleVoting(proposal);\r\n\r\n        if (choosen) proposal.upvotes++;\r\n        else proposal.downvotes++;\r\n\r\n        stakeholderVotes[msg.sender].push(proposal.id);\r\n\r\n        votedOn[proposal.id].push(\r\n            VotedStruct(\r\n                msg.sender,\r\n                block.timestamp,\r\n                choosen\r\n            )\r\n        );\r\n\r\n        emit Action(\r\n            msg.sender,\r\n            STAKEHOLDER_ROLE,\r\n            \"PROPOSAL VOTE\",\r\n            proposal.beneficiary,\r\n            proposal.amount\r\n        );\r\n\r\n        return VotedStruct(\r\n                msg.sender,\r\n                block.timestamp,\r\n                choosen\r\n            );\r\n    }\r\n\r\n    function handleVoting(ProposalStruct storage proposal) private {\r\n        if (\r\n            proposal.passed ||\r\n            proposal.duration <= block.timestamp\r\n        ) {\r\n            proposal.passed = true;\r\n            revert(\"Proposal duration expired\");\r\n        }\r\n\r\n        uint256[] memory tempVotes = stakeholderVotes[msg.sender];\r\n        for (uint256 votes = 0; votes < tempVotes.length; votes++) {\r\n            if (proposal.id == tempVotes[votes])\r\n                revert(\"Double voting not allowed\");\r\n        }\r\n    }\r\n\r\n    function payBeneficiary(uint256 proposalId)\r\n        external\r\n        stakeholderOnly(\"Unauthorized: Stakeholders only\")\r\n        nonReentrant()\r\n        returns (uint256)\r\n    {\r\n        ProposalStruct storage proposal = raisedProposals[proposalId];\r\n        require(daoBalance >= proposal.amount, \"Insufficient fund\");\r\n\r\n        if (proposal.paid) revert(\"Payment sent before\");\r\n\r\n        if (proposal.upvotes <= proposal.downvotes)\r\n            revert(\"Insufficient votes\");\r\n\r\n        payTo(proposal.beneficiary, proposal.amount);\r\n\r\n        proposal.paid = true;\r\n        proposal.executor = msg.sender;\r\n        daoBalance -= proposal.amount;\r\n\r\n        emit Action(\r\n            msg.sender,\r\n            STAKEHOLDER_ROLE,\r\n            \"PAYMENT TRANSFERED\",\r\n            proposal.beneficiary,\r\n            proposal.amount\r\n        );\r\n\r\n        return daoBalance;\r\n    }\r\n\r\n    function contribute() payable external returns (uint256) {\r\n        require(msg.value > 0 ether, \"Contributing zero is not allowed.\");\r\n        if (!hasRole(STAKEHOLDER_ROLE, msg.sender)) {\r\n            uint256 totalContribution =\r\n                contributors[msg.sender] + msg.value;\r\n\r\n            if (totalContribution >= MIN_STAKEHOLDER_CONTRIBUTION) {\r\n                stakeholders[msg.sender] = totalContribution;\r\n                contributors[msg.sender] += msg.value;\r\n                _setupRole(STAKEHOLDER_ROLE, msg.sender);\r\n                _setupRole(CONTRIBUTOR_ROLE, msg.sender);\r\n            } else {\r\n                contributors[msg.sender] += msg.value;\r\n                _setupRole(CONTRIBUTOR_ROLE, msg.sender);\r\n            }\r\n        } else {\r\n            contributors[msg.sender] += msg.value;\r\n            stakeholders[msg.sender] += msg.value;\r\n        }\r\n        \r\n        daoBalance += msg.value;\r\n\r\n        emit Action(\r\n            msg.sender,\r\n            STAKEHOLDER_ROLE,\r\n            \"CONTRIBUTION RECEIVED\",\r\n            address(this),\r\n            msg.value\r\n        );\r\n\r\n        return daoBalance;\r\n    }\r\n\r\n    function getProposals()\r\n        external\r\n        view\r\n        returns (ProposalStruct[] memory props)\r\n    {\r\n        props = new ProposalStruct[](totalProposals);\r\n\r\n        for (uint256 i = 0; i < totalProposals; i++) {\r\n            props[i] = raisedProposals[i];\r\n        }\r\n    }\r\n\r\n    function getProposal(uint256 proposalId)\r\n        external\r\n        view\r\n        returns (ProposalStruct memory)\r\n    {\r\n        return raisedProposals[proposalId];\r\n    }\r\n    \r\n    function getVotesOf(uint256 proposalId)\r\n        external\r\n        view\r\n        returns (VotedStruct[] memory)\r\n    {\r\n        return votedOn[proposalId];\r\n    }\r\n\r\n    function getStakeholderVotes()\r\n        external\r\n        view\r\n        stakeholderOnly(\"Unauthorized: not a stakeholder\")\r\n        returns (uint256[] memory)\r\n    {\r\n        return stakeholderVotes[msg.sender];\r\n    }\r\n\r\n    function getStakeholderBalance()\r\n        external\r\n        view\r\n        stakeholderOnly(\"Unauthorized: not a stakeholder\")\r\n        returns (uint256)\r\n    {\r\n        return stakeholders[msg.sender];\r\n    }\r\n\r\n    function isStakeholder() external view returns (bool) {\r\n        return stakeholders[msg.sender] > 0;\r\n    }\r\n\r\n    function getContributorBalance()\r\n        external\r\n        view\r\n        contributorOnly(\"Denied: User is not a contributor\")\r\n        returns (uint256)\r\n    {\r\n        return contributors[msg.sender];\r\n    }\r\n\r\n    function isContributor() external view returns (bool) {\r\n        return contributors[msg.sender] > 0;\r\n    }\r\n\r\n    function getBalance() external view returns (uint256) {\r\n        return contributors[msg.sender];\r\n    }\r\n\r\n    function payTo(\r\n        address to, \r\n        uint256 amount\r\n    ) internal returns (bool) {\r\n        (bool success,) = payable(to).call{value: amount}(\"\");\r\n        require(success, \"Payment failed\");\r\n        return true;\r\n    }\r\n}",
  "sourcePath": "/home/shouvik/Work/Personal/AcceleratorDAO/src/contracts/AcceleratorDAO.sol",
  "compiler": {
    "name": "solc",
    "version": "0.8.11+commit.d7f03943.Emscripten.clang"
  },
  "schemaVersion": "3.4.11",
  "updatedAt": "2022-11-24T10:04:38.445Z",
  "networkType": "ethereum",
  "devdoc": {
    "kind": "dev",
    "methods": {
      "getRoleAdmin(bytes32)": {
        "details": "Returns the admin role that controls `role`. See {grantRole} and {revokeRole}. To change a role's admin, use {_setRoleAdmin}."
      },
      "grantRole(bytes32,address)": {
        "details": "Grants `role` to `account`. If `account` had not been already granted `role`, emits a {RoleGranted} event. Requirements: - the caller must have ``role``'s admin role."
      },
      "hasRole(bytes32,address)": {
        "details": "Returns `true` if `account` has been granted `role`."
      },
      "renounceRole(bytes32,address)": {
        "details": "Revokes `role` from the calling account. Roles are often managed via {grantRole} and {revokeRole}: this function's purpose is to provide a mechanism for accounts to lose their privileges if they are compromised (such as when a trusted device is misplaced). If the calling account had been revoked `role`, emits a {RoleRevoked} event. Requirements: - the caller must be `account`."
      },
      "revokeRole(bytes32,address)": {
        "details": "Revokes `role` from `account`. If `account` had been granted `role`, emits a {RoleRevoked} event. Requirements: - the caller must have ``role``'s admin role."
      },
      "supportsInterface(bytes4)": {
        "details": "See {IERC165-supportsInterface}."
      }
    },
    "version": 1
  },
  "userdoc": {
    "kind": "user",
    "methods": {},
    "version": 1
  }
}